:020000040000FA
:1000000068E1FF1F19020000210200002302000026
:1000100000000000000000000000000000000000E0
:1000200000000000000000000000000025020000A9
:10003000000000000000000027020000290200006C
:100040002B0200002B0200002B0200002B020000FC
:100050002B0200002B0200002B0200002B020000EC
:100060002B0200002B0200002B0200002B020000DC
:100070002B0200002B0200002B0200002B020000CC
:100080002B0200002B0200002B0200002B020000BC
:100090002B0200002B0200002B0200002B020000AC
:1000A0002B0200002B0200002B0200002B0200009C
:1000B0002B0200002B0200002B0200002B0200008C
:1000C00000F002F800F03EF80CA030C80838241800
:1000D0002D18A246671EAB4654465D46AC4201D180
:1000E00000F030F87E460F3E0FCCB6460126334274
:1000F00000D0FB1AA246AB46334318471405000054
:1001000034050000103A02D378C878C1FAD85207F3
:1001100001D330C830C101D504680C6070470000BD
:100120000023002400250026103A01D378C1FBD813
:10013000520700D330C100D50B6070471FB51FBDFB
:1001400010B510BD00F032F91146FFF7F7FF00F0CF
:100150005DF800F04AF903B4FFF7F2FF03BC00F0CA
:100160003BFA00002448806B01210903084322491F
:100170008863881521494861214840692021084346
:100180001F4948617047002020211D4A516000BF6F
:1001900000E0401C1B498842FBD32021184A916093
:1001A000002000E0401C17498842FBD37047002024
:1001B0001349096820221143114A116000BF00E071
:1001C000401C11498842FBD30D4909682022914304
:1001D0000B4A1160002000E0401C0B498842FBD311
:1001E000704700202021064AD16000BF00E0401C7B
:1001F00005498842FBD370470080044000C004409A
:10020000C0F00F40404B4C00C0C62D00FFF7AAFFC6
:1002100001E0FFF7B8FFFCE70748804707480047C1
:10022000FEE7FEE7FEE7FEE7FEE7FEE704480549D6
:10023000034A054B7047000011040000C100000094
:1002400068E0FF1F68E1FF1F68E0FF1F002203094D
:100250008B422CD3030A8B4211D300239C464EE0E1
:1002600003460B433CD4002243088B4231D303099D
:100270008B421CD3030A8B4201D394463FE0C3094F
:100280008B4201D3CB01C01A524183098B4201D367
:100290008B01C01A524143098B4201D34B01C01A52
:1002A000524103098B4201D30B01C01A5241C308CA
:1002B0008B4201D3CB00C01A524183088B4201D339
:1002C0008B00C01A524143088B4201D34B00C01A25
:1002D0005241411A00D201465241104670475DE03A
:1002E000CA0F00D04942031000D3404253400022BD
:1002F0009C4603098B422DD3030A8B4212D3FC2266
:10030000890112BA030A8B420CD3890192118B42E4
:1003100008D3890192118B4204D389013AD09211FA
:1003200000E08909C3098B4201D3CB01C01A5241B5
:1003300083098B4201D38B01C01A524143098B427E
:1003400001D34B01C01A524103098B4201D30B0167
:10035000C01A5241C3088B4201D3CB00C01A52418C
:1003600083088B4201D38B00C01A5241D9D2430873
:100370008B4201D34B00C01A5241411A00D20146B0
:10038000634652415B10104601D34042002B00D51A
:100390004942704763465B1000D3404201B50020DC
:1003A000C046C04602BD704770477047754600F0B2
:1003B0000FF9AE46050069465346C008C0008546A1
:1003C00018B020B5FFF732FF60BC00274908B646D9
:1003D0000026C0C5C0C5C0C5C0C5C0C5C0C5C0C554
:1003E000C0C5403D49008D46704710B50446C04623
:1003F000C0462046FFF7AFFE10BD7047000000006A
:10040000FFFFFFFFFFFFFFFFFFFFFFFFFEFFFFFFFD
:10041000002067490860012040046549C0394860F0
:100420000620644908700846407840210840614928
:1004300048700846C0788006800E202108435D4938
:10044000C87080205C49087000205A4908714871C2
:1004500000BF58488079102108400028F9D000BF1B
:10046000544880790C2108400028F9D1704770B5B4
:1004700050480078C0210840002868D14D48407994
:100480004021084000284ED14A4800780421084005
:10049000002815D1494C4748007838210840C10848
:1004A00001208840C5B229462046FFF7CFFE04460A
:1004B0004048407830210840002803D0640901E01A
:1004C0000124E4033B48C078E0210840C106C90E7E
:1004D000002926D14011030000F08CF80805090D11
:1004E0001115191D20230520C00144431AE00520E1
:1004F0000002444316E00F20C001444312E00520EF
:10050000400244430EE0B720800044430AE0B72095
:10051000C000444306E02A48444303E029484443DA
:1005200000E000BF38E023480079C006C00E451C3B
:1005300029462248FFF78AFE04461E484079C00635
:10054000C00E0546183520466843044624E0194885
:100550000078C0210840402815D116484078C007CF
:10056000C00F002802D10124E40315E01148007AED
:100570000E22104042080120904001461248FFF729
:1005800065FE044608E00B480078C021084080283A
:1005900001D10A4C00E070BD0548C0384068000F2A
:1005A000411C2046FFF752FE0849086000BFF2E7F1
:1005B00000810440004006400050064000127A00CE
:1005C00095080000710B000000093D0000E0FF1FCE
:1005D0000048704704E0FF1F01491820ABBEFEE74A
:1005E000260002000248401E002800D0FBE77047AA
:1005F00040771B0030B47446641E2578641CAB42FF
:1006000004D3635D5B00E31830BC18471D46F8E770
:100610003006000000E0FF1F04000000040100009D
:100620003406000004E0FF1F640100002001000008
:040630000000800244
:0400000500000219DC
:00000001FF
